:100000000C9458000C9480000C9480000C94800098
:100010000C9480000C9480000C9480000C94800060
:100020000C9480000C9480000C9480000C94800050
:100030000C9480000C9480000C9480000C94800040
:100040000C941E030C9480000C94EC020C94C602D9
:100050000C9480000C9480000C9480000C94800020
:100060000C9468030C948000000000002500280018
:100070002B00040404040404040402020202020229
:10008000030303030303010204081020408001025C
:1000900004081020010204081020000000080002DB
:1000A00001000003040700000000000000009604A7
:1000B00011241FBECFEFD8E0DEBFCDBF11E0A0E01E
:1000C000B1E0EEE6FBE002C005900D92A032B10770
:1000D000D9F722E0A0E2B1E001C01D92AA39B2072F
:1000E000E1F710E0C8E5D0E004C02197FE010E94CE
:1000F000AA05C735D107C9F70E94CF040C94B505EE
:100100000C94000090E0FC01E656FF4F2491FC01A6
:10011000EA57FF4F3491FC01EE58FF4FE491EE2374
:10012000B1F1222339F1233091F038F42130A9F0D4
:10013000223001F584B58F7D12C0273091F0283030
:10014000A1F02430B9F4809180008F7D03C08091AC
:1001500080008F77809380000DC084B58F7784BD39
:1001600009C08091B0008F7703C08091B0008F7D6F
:100170008093B000F0E0EE0FFF1FE859FF4FA5910C
:10018000B4918FB7F894EC913E2B3C938FBF0895B8
:10019000E0917201F0917301309729F01092E8011B
:1001A0001092E70109940895CF93DF93AC01E09199
:1001B000EF01F091F0013097F1F09091EA01809118
:1001C000E9019817C0F090E0292F30E02617370793
:1001D00054F4D901AE5ABE4FEA01C20FD31F888131
:1001E0008C939F5FF1CF1092EA016093E901CB01FC
:1001F000DF91CF910994DF91CF910895CF92DF9253
:10020000EF92FF920F931F93CF93DF936C017A01CC
:100210008B01C0E0D0E0CE15DF0589F0D8016D91EB
:100220008D01D601ED91FC910190F081E02DC60188
:100230000995892B11F47E0102C02196ECCFC701EC
:10024000DF91CF911F910F91FF90EF90DF90CF90B2
:100250000895FC01918D828D981761F0828DDF01E8
:10026000A80FB11D5D968C91928D9F5F9F73928FA9
:1002700090E008958FEF9FEF0895FC01918D828D9E
:10028000981731F0828DE80FF11D858D90E008956B
:100290008FEF9FEF0895FC01918D228D892F90E0C3
:1002A000805C9F4F821B91098F739927089581EF7E
:1002B00091E00E944B0121E0892B09F420E0822F7C
:1002C0000895FC01848DDF01A80FB11DA35ABF4F13
:1002D0002C91848D90E001968F739927848FA68945
:1002E000B7892C93A089B1898C9180648C93938D6C
:1002F000848D981306C00288F389E02D80818F7D5C
:1003000080830895EF92FF920F931F93CF93DF9313
:10031000EC0181E0888F9B8D8C8D981305C0E88956
:10032000F989808185FD24C0F62E0B8D10E00F5FCA
:100330001F4F0F731127E02E8C8DE8120CC00FB6E3
:1003400007FCFACFE889F989808185FFF5CFCE01D6
:100350000E946101F1CF8B8DFE01E80FF11DE35A80
:10036000FF4FF0820B8FEA89FB898081806207C092
:10037000EE89FF896083E889F989808180648083C0
:1003800081E090E0DF91CF911F910F91FF90EF906E
:100390000895CF93DF93EC01888D8823C9F0EA8913
:1003A000FB89808185FD05C0A889B9898C9186FD6E
:1003B0000FC00FB607FCF5CF808185FFF2CFA8896B
:1003C000B9898C9185FFEDCFCE010E946101E7CF05
:1003D000DF91CF91089580E090E0892B29F00E9471
:1003E000570181110C94000008953FB7F894809153
:1003F000E0019091E101A091E201B091E30126B505
:10040000A89B05C02F3F19F00196A11DB11D3FBF4C
:10041000BA2FA92F982F8827820F911DA11DB11DDA
:10042000BC01CD0142E0660F771F881F991F4A95D6
:10043000D1F7089585ED8093BC008091BC0084FDC8
:10044000FCCF1092E601089540919401262F30E0F0
:10045000240F311D21323105DCF42091E6012430D6
:10046000C9F4FC0180E090E0861758F430919401C3
:100470002191DC01AC58BE4FA30FB11D2C93019606
:10048000F3CF80919401680F6093940180E0089508
:1004900081E0089582E008950895E091EA01809155
:1004A000E901E81730F4F0E0EE5AFE4F808190E069
:1004B00008958FEF9FEF08959091EA018091E901EF
:1004C000981750F4E92FF0E0EE5AFE4F208130E00B
:1004D0009F5F9093EA0102C02FEF3FEFC90108959B
:1004E0008091E90190E02091EA01821B9109089531
:1004F000CF93DF9300D0CDB7DEB7CB01642F498314
:100500005A830E9424024981842F5A81952F0F908B
:100510000F90DF91CF910895CF93DF931F92CDB7C6
:10052000DEB7698361E0CE0101960E94240281E07A
:1005300090E00F90DF91CF9108950E94B005CF9386
:10054000DF93C0E2D1E0FE01E052F1409091E90179
:100550008091EA01981731F08EE892E00E945C02E7
:100560008993F1CFE05EFE4F1082E0E2F1E001906E
:100570000020E9F73197AF014052514060E271E04D
:1005800081EF91E0DF91CF910C94FE001F920F92CA
:100590000FB60F9211242F933F934F935F936F9356
:1005A0007F938F939F93AF93BF93EF93FF9381EFCD
:1005B00091E00E946101FF91EF91BF91AF919F91F6
:1005C0008F917F916F915F914F913F912F910F90FC
:1005D0000FBE0F901F9018951F920F920FB60F929B
:1005E00011242F938F939F93EF93FF93E091010238
:1005F000F09102028081E0910702F091080282FDF1
:1006000012C0908180910A028F5F8F7320910B023C
:10061000821751F0E0910A02F0E0EF50FE4F958F03
:1006200080930A0201C08081FF91EF919F918F9189
:100630002F910F900FBE0F901F9018951F920F9241
:100640000FB60F9211242F933F938F939F93AF93E5
:10065000BF938091DC019091DD01A091DE01B0910A
:10066000DF013091DB0123E0230F2D3720F40196C9
:10067000A11DB11D05C026E8230F0296A11DB11DC5
:100680002093DB018093DC019093DD01A093DE01D8
:10069000B093DF018091E0019091E101A091E2012E
:1006A000B091E3010196A11DB11D8093E0019093EB
:1006B000E101A093E201B093E301BF91AF919F915B
:1006C0008F913F912F910F900FBE0F901F90189513
:1006D0001F920F920FB60F9211242F933F934F93B7
:1006E0005F936F937F938F939F93AF93BF93EF939A
:1006F000FF938091B900887F803609F49CC068F52B
:10070000883209F45BC090F4803109F454C038F4A5
:10071000882309F4F6C0883009F44DC0F6C088314A
:1007200009F44CC0803209F45DC0EFC0803409F494
:1007300068C048F4803309F455C0883309F0E5C037
:100740008093B701D8C0803509F44FC0883509F4CB
:100750005DC0883409F0D9C0D6C0883909F4C7C053
:10076000A8F4883709F467C038F4883609F463C000
:10077000803709F460C0C9C0883809F4B8C080392E
:1007800009F45FC0803809F0C0C05BC0803B09F449
:1007900086C038F4803A09F466C0883A09F47FC00C
:1007A000B4C0803C09F4A7C0883C09F4A4C0883BCD
:1007B00009F48AC0AAC08091DA0110C09091D901D1
:1007C0008091D801981770F5E091D90181E08E0FE2
:1007D0008093D901F0E0E854FE4F80818093BB0004
:1007E00085EC86C08093B7018EC0E091D90181E08D
:1007F0008E0F8093D9018091BB00F0E0E854FE4F4A
:1008000080839091D9018091D8016EC0E091D90187
:1008100081E08E0F8093D9018091BB00F0E0E85415
:10082000FE4F80838091E50181116DC081E080934E
:10083000E40184EA61C083E08093E6011092B6018E
:10084000CFCF8091B601803208F051C0E091B6015F
:1008500081E08E0F8093B6018091BB00F0E0EA56F4
:10086000FE4F8083BDCF85EC8093BC001092E601E3
:100870008091B601803230F4E091B601F0E0EA56A2
:10088000FE4F10826091B60170E0E091EB01F091B3
:10089000EC0186E991E009951092B60136C084E03A
:1008A0008093E6011092950110929401E091ED0180
:1008B000F091EE01099580919401811105C081E0CC
:1008C0008093940110927401E091950181E08E0F64
:1008D00080939501F0E0EC58FE4F80818093BB003F
:1008E0009091950180919401981708F479CF85E84B
:1008F0008093BC000AC085EC8093BC001092E60196
:1009000004C01092B7010E941A02FF91EF91BF91AB
:10091000AF919F918F917F916F915F914F913F9197
:100920002F910F900FBE0F901F901895E1EFF1E0FF
:100930001382128288EE93E0A0E0B0E08483958376
:10094000A683B78324E031E03183208325EC30E0B7
:100950003587248724EC30E03787268720EC30E089
:10096000318B208B21EC30E0338B228B22EC30E07A
:10097000358B248B26EC30E0378B268B118E128E34
:10098000138E148EEEE8F2E0138212828483958334
:10099000A683B78384E191E091838083089578945E
:1009A00084B5826084BD84B5816084BD85B5826074
:1009B00085BD85B5816085BD80916E008160809325
:1009C0006E0010928100809181008260809381008E
:1009D000809181008160809381008091800081609E
:1009E000809380008091B10084608093B1008091F9
:1009F000B00081608093B00080917A008460809321
:100A00007A0080917A00826080937A0080917A00E7
:100A1000816080937A0080917A00806880937A0068
:100A20001092C100E0910102F091020282E0808305
:100A3000E091FD01F091FE011082E091FF01F09143
:100A400000028FEC808310920902E0910502F09180
:100A5000060286E08083E0910302F0910402808127
:100A600080618083E0910302F091040280818860BC
:100A70008083E0910302F09104028081806880838A
:100A8000E0910302F091040280818F7D808388E0F1
:100A90008093BA0088EC90E09093EE018093ED0192
:100AA00084ED90E09093EC018093EB011092EA01C9
:100AB0001092E9011092E8011092E7011092E6010C
:100AC00081E08093E5011092E40182E10E948200BE
:100AD00083E10E9482008091B9008E7F8093B900EB
:100AE0008091B9008D7F8093B90088E48093B8002D
:100AF00085E48093BC008FE992E09093F0018093AD
:100B0000EF010E94F5014B015C0184E6C82ED12C57
:100B1000E12CF12C0E94F501DC01CB018819990927
:100B2000AA09BB09883E9340A105B10558F021E010
:100B3000C21AD108E108F10888EE880E83E0981EF9
:100B4000A11CB11CC114D104E104F10419F70E94E5
:100B5000EB01D7CFEE0FFF1F0590F491E02D099424
:0E0B600081E090E0F8940C94B505F894FFCF76
:100B6E00000000008201FE004B0129013D01C90178
:100B7E00000000008C02780270025C024D024C02F2
:107E0000112484B714BE81FFF0D085E080938100F7
:107E100082E08093C00088E18093C10086E0809377
:107E2000C20080E18093C4008EE0C9D0259A86E02C
:107E300020E33CEF91E0309385002093840096BBD3
:107E4000B09BFECF1D9AA8958150A9F7CC24DD24C4
:107E500088248394B5E0AB2EA1E19A2EF3E0BF2EE7
:107E6000A2D0813461F49FD0082FAFD0023811F036
:107E7000013811F484E001C083E08DD089C08234E0
:107E800011F484E103C0853419F485E0A6D080C0E4
:107E9000853579F488D0E82EFF2485D0082F10E0AE
:107EA000102F00270E291F29000F111F8ED06801E7
:107EB0006FC0863521F484E090D080E0DECF843638
:107EC00009F040C070D06FD0082F6DD080E0C81688
:107ED00080E7D80618F4F601B7BEE895C0E0D1E017
:107EE00062D089930C17E1F7F0E0CF16F0E7DF06D8
:107EF00018F0F601B7BEE89568D007B600FCFDCFD4
:107F0000A601A0E0B1E02C9130E011968C91119780
:107F100090E0982F8827822B932B1296FA010C0160
:107F200087BEE89511244E5F5F4FF1E0A038BF0790
:107F300051F7F601A7BEE89507B600FCFDCF97BE46
:107F4000E89526C08437B1F42ED02DD0F82E2BD052
:107F50003CD0F601EF2C8F010F5F1F4F84911BD097
:107F6000EA94F801C1F70894C11CD11CFA94CF0C13
:107F7000D11C0EC0853739F428D08EE10CD085E9AC
:107F80000AD08FE07ACF813511F488E018D01DD067
:107F900080E101D065CF982F8091C00085FFFCCF94
:107FA0009093C60008958091C00087FFFCCF809118
:107FB000C00084FD01C0A8958091C6000895E0E648
:107FC000F0E098E1908380830895EDDF803219F02E
:107FD00088E0F5DFFFCF84E1DECF1F93182FE3DFCA
:107FE0001150E9F7F2DF1F91089580E0E8DFEE27F6
:047FF000FF270994CA
:027FFE00040479
:0400000300007E007B
:00000001FF
