:100000000C9462000C948A000C948A000C948A0070
:100010000C948A000C948A000C948A000C948A0038
:100020000C948A000C948A000C948A000C948A0028
:100030000C948A000C948A000C948A000C948A0018
:100040000C946B020C940D030C94DB020C94B5021F
:100050000C948A000C948A000C948A000C948A00F8
:100060000C948A000C948A000000000023002600F3
:10007000290000000000240027002A0000000000E2
:10008000250028002B0004040404040404040202D4
:100090000202020203030303030301020408102007
:1000A0004080010204081020010204081020000012
:1000B0000008000201000003040700000000000027
:1000C0000000450411241FBECFEFD8E0DEBFCDBF36
:1000D00011E0A0E0B1E0EEE8F9E002C005900D9279
:1000E000A431B107D9F722E0A4E1B1E001C01D922B
:1000F000A032B207E1F710E0C2E6D0E004C02197D9
:10010000FE010E949404C136D107C9F70E94620320
:100110000C94C5040C940000CF92DF92EF92FF92F2
:100120000F931F93CF93DF936C017A018B01C0E093
:10013000D0E0CE15DF0589F0D8016D918D01D60193
:10014000ED91FC910190F081E02DC6010995892B7C
:1001500011F47E0102C02196ECCFC701DF91CF914F
:100160001F910F91FF90EF90DF90CF900895FC01C9
:10017000918D828D981761F0828DDF01A80FB11DDE
:100180005D968C91928D9F5F9F73928F90E0089502
:100190008FEF9FEF0895FC01918D828D981731F0BC
:1001A000828DE80FF11D858D90E008958FEF9FEF10
:1001B0000895FC01918D228D892F90E0805C9F4FE6
:1001C000821B91098F739927089583E891E00E941B
:1001D000D90021E0892B09F420E0822F0895FC0149
:1001E000848DDF01A80FB11DA35ABF4F2C91848DC0
:1001F00090E001968F739927848FA689B7892C93F5
:10020000A089B1898C9180648C93938D848D98138F
:1002100006C00288F389E02D80818F7D8083089558
:10022000EF92FF920F931F93CF93DF93EC0181E046
:10023000888F9B8D8C8D981305C0E889F989808102
:1002400085FD24C0F62E0B8D10E00F5F1F4F0F733E
:100250001127E02E8C8DE8120CC00FB607FCFACFE8
:10026000E889F989808185FFF5CFCE010E94EF00F2
:10027000F1CF8B8DFE01E80FF11DE35AFF4FF082A5
:100280000B8FEA89FB898081806207C0EE89FF8934
:100290006083E889F98980818064808381E090E0CF
:1002A000DF91CF911F910F91FF90EF900895CF9321
:1002B000DF93EC01888D8823C9F0EA89FB8980816E
:1002C00085FD05C0A889B9898C9186FD0FC00FB640
:1002D00007FCF5CF808185FFF2CFA889B9898C9181
:1002E00085FFEDCFCE010E94EF00E7CFDF91CF91E8
:1002F000089580E090E0892B29F00E94E5008111AB
:100300000C9400000895833081F028F4813099F036
:100310008230A1F008958730A9F08830B9F0843098
:10032000D1F4809180008F7D03C0809180008F7711
:1003300080938000089584B58F7702C084B58F7D47
:1003400084BD08958091B0008F7703C08091B00084
:100350008F7D8093B00008951F93CF93DF93282F54
:1003600030E0F901E255FF4F8491F901E656FF4F65
:10037000D491F901EA57FF4FC491CC23C9F0162F4D
:1003800081110E948301EC2FF0E0EE0FFF1FE45873
:10039000FF4FA591B4918FB7F894111105C09C91AE
:1003A000ED2FE095E92302C0EC91ED2BEC938FBF8C
:1003B000DF91CF911F910895CF93DF9390E0FC01DF
:1003C000E656FF4F2491FC01EA57FF4F84918823A2
:1003D00061F190E0880F991FFC01EE58FF4FC59125
:1003E000D491FC01E458FF4FA591B491611109C06B
:1003F0009FB7F8948881209582238883EC912E23DF
:100400000BC0623061F49FB7F8943881822F8095D9
:1004100083238883EC912E2B2C939FBF06C08FB72C
:10042000F894E8812E2B28838FBFDF91CF91089518
:100430008F929F92AF92BF920F931F93CF93DF93B0
:10044000CDB7DEB7A1970FB6F894DEBF0FBECDBF14
:1004500019A2423008F44AE08E010F5D1F4F842E2E
:10046000912CA12CB12CA50194010E947204E62FBD
:10047000B901CA0101501109EA3014F4E05D01C06C
:10048000E95CD801EC93232B242B252B61F7011574
:10049000110571F0F80101900020E9F73197AF01E3
:1004A000401B510BB80183E891E00E948C0002C010
:1004B00080E090E0A1960FB6F894DEBF0FBECDBFEE
:1004C000DF91CF911F910F91BF90AF909F908F9030
:1004D00008950E949A041F920F920FB60F92112452
:1004E0002F933F938F939F93AF93BF9380917F01FF
:1004F00090918001A0918101B091820130917E01A3
:1005000023E0230F2D3720F40196A11DB11D05C056
:1005100026E8230F0296A11DB11D20937E01809332
:100520007F0190938001A0938101B093820180911B
:100530007A0190917B01A0917C01B0917D0101969F
:10054000A11DB11D80937A0190937B01A0937C0142
:10055000B0937D01BF91AF919F918F913F912F916A
:100560000F900FBE0F901F9018951F920F920FB60D
:100570000F9211242F933F934F935F936F937F9329
:100580008F939F93AF93BF93EF93FF9383E891E093
:100590000E94EF00FF91EF91BF91AF919F918F91DA
:1005A0007F916F915F914F913F912F910F900FBE6F
:1005B0000F901F9018951F920F920FB60F92112453
:1005C0002F938F939F93EF93FF93E0919301F0917B
:1005D00094018081E0919901F0919A0182FD12C00D
:1005E000908180919C018F5F8F7320919D01821774
:1005F00051F0E0919C01F0E0ED57FE4F958F809314
:100600009C0101C08081FF91EF919F918F912F916B
:100610000F900FBE0F901F9018951F920F920FB65C
:100620000F9211241F932F933F934F935F936F93D8
:100630007F938F939F93AF93BF93CF93DF93EF936A
:10064000FF931EB5E8EBF0E08491E4EAF0E0D4918A
:10065000E0E9F0E0C491CC2371F081110E948301A4
:10066000EC2FF0E0EE0FFF1FE859FF4FA591B4917A
:10067000EC91ED2399F480917801843678F4E0913F
:10068000780181E08E0F80937801F0E0EC5EFE4F00
:1006900010831A3019F481E080937901FF91EF9172
:1006A000DF91CF91BF91AF919F918F917F916F918A
:1006B0005F914F913F912F911F910F900FBE0F901F
:1006C0001F901895789484B5826084BD84B581604C
:1006D00084BD85B5826085BD85B5816085BD80910D
:1006E0006E00816080936E00109281008091810085
:1006F000826080938100809181008160809381007D
:10070000809180008160809380008091B10084603E
:100710008093B1008091B00081608093B00080919F
:100720007A00846080937A0080917A00826080935E
:100730007A0080917A00816080937A0080917A00BB
:10074000806880937A001092C100E0919301F0914B
:10075000940182E08083E0918F01F09190011082FA
:10076000E0919101F091920180E1808310929B01D0
:10077000E0919701F091980186E08083E0919501E6
:10078000F0919601808180618083E0919501F091E4
:100790009601808188608083E0919501F0919601B7
:1007A000808180688083E0919501F091960180813D
:1007B0008F7D808361E08CE00E94DC0160E08AE054
:1007C0000E94DC0161E087E00E94DC0161E086E0DC
:1007D0000E94DC018CB580648CBD1092780110926F
:1007E00079018CB580688CBD80917901882309F4EA
:1007F00049C0E0917801F0E0EC5EFE4F108284E1A8
:1008000091E00E949F04EC016C01990FEE08FF0833
:10081000F7FE14C0E0918301F09184010190F08112
:10082000E02D6DE283E891E0099566277727CB01FB
:100830006C197D098E099F094AE003C04AE0C7018F
:10084000B6010E94180242E050E060E171E083E8E6
:1008500091E00E948C00CA30D10541F02B9771F4D1
:1008600060E086E00E94AC0161E005C061E086E0E6
:100870000E94AC0160E087E00E94AC011092780118
:10088000109279010E947901AFCFE3E8F1E0138281
:10089000128288EE93E0A0E0B0E084839583A68383
:1008A000B78384E091E09183808385EC90E0958725
:1008B000848784EC90E09787868780EC90E0918B2A
:1008C000808B81EC90E0938B828B82EC90E0958B17
:1008D000848B86EC90E0978B868B118E128E138E14
:1008E000148E0895A1E21A2EAA1BBB1BFD010DC098
:1008F000AA1FBB1FEE1FFF1FA217B307E407F507D0
:1009000020F0A21BB30BE40BF50B661F771F881FAB
:10091000991F1A9469F760957095809590959B0141
:10092000AC01BD01CF010895EE0FFF1F0590F491BA
:10093000E02D099481E090E0F8940C94C504FC014A
:1009400088279927E89421912032E9F3293010F083
:100950002E30C8F32B3241F02D3239F4689404C0A4
:100960000E94BD04820F911D219120532A30C0F3B3
:100970001EF4909581959F4F08957AE0979F902D52
:0E098000879F802D910D11240895F894FFCFCC
:10098E000000000010018C00D900B700CB00570109
:04099E000D0A00003E
:107800000C94343C0C94513C0C94513C0C94513CE1
:107810000C94513C0C94513C0C94513C0C94513CB4
:107820000C94513C0C94513C0C94513C0C94513CA4
:107830000C94513C0C94513C0C94513C0C94513C94
:107840000C94513C0C94513C0C94513C0C94513C84
:107850000C94513C0C94513C0C94513C0C94513C74
:107860000C94513C0C94513C11241FBECFEFD8E036
:10787000DEBFCDBF11E0A0E0B1E0ECE9FFE702C060
:1078800005900D92A230B107D9F712E0A2E0B1E065
:1078900001C01D92AD30B107E1F70E942D3D0C945F
:1078A000CC3F0C94003C982F959595959595959582
:1078B000905D8F708A307CF0282F295A8091C0000B
:1078C00085FFFCCF9093C6008091C00085FFFCCF60
:1078D0002093C6000895282F205DF0CF982F809127
:1078E000C00085FFFCCF9093C6000895EF92FF92F1
:1078F0000F931F93EE24FF2487018091C00087FD22
:1079000017C00894E11CF11C011D111D81E4E8164B
:1079100082E4F8068FE0080780E0180770F3E09132
:107920000401F091050109958091C00087FFE9CF1E
:107930008091C6001F910F91FF90EF9008950E94D3
:10794000763C982F8091C00085FFFCCF9093C600B5
:1079500091362CF490330CF09053892F089597555D
:10796000892F08951F930E949F3C182F0E949F3CCF
:107970001295107F810F1F9108951F93182F882350
:1079800021F00E94763C1150E1F71F9108951F935A
:10799000182F0E94763C803249F0809103018F5F5E
:1079A000809303018530C1F01F9108958091C0003C
:1079B00085FFFCCF84E18093C6008091C00085FFE5
:1079C000FCCF1093C6008091C00085FFFCCF80E102
:1079D0008093C6001F910895E0910401F091050184
:1079E00009951F9108950E94763C803241F0809164
:1079F00003018F5F80930301853081F008958091AA
:107A0000C00085FFFCCF84E18093C6008091C00058
:107A100085FFFCCF80E18093C6000895E0910401CA
:107A2000F09105010995089540E951E08823A1F0FE
:107A30002D9A28EE33E0FA013197F1F721503040CA
:107A4000D1F72D9828EE33E0FA013197F1F7215064
:107A50003040D1F7815061F708953F924F925F9285
:107A60006F927F928F929F92AF92BF92CF92DF924E
:107A7000EF92FF920F931F93CF93DF93000080E16B
:107A80008093C4001092C50088E18093C10086E015
:107A90008093C2005098589A259A81E00E94143D24
:107AA00024E1F22E9EE1E92E85E9D82E0FE0C02ECA
:107AB00010E1B12EAA24A394B1E49B2EA6E58A2E50
:107AC000F2E57F2EE0E26E2E79E4572E63E5462E36
:107AD00050E5352E0E94763C8033B1F18133B9F107
:107AE000803409F46FC0813409F476C0823409F41B
:107AF00085C0853409F488C0803531F1823521F1A3
:107B0000813511F1853509F485C0863509F48DC0BC
:107B1000843609F496C0843709F403C1853709F423
:107B200072C1863709F466C0809103018F5F80932C
:107B30000301853079F6E0910401F0910501099582
:107B40000E94763C803351F60E94F33CC3CF0E94E2
:107B5000763C803249F78091C00085FFFCCFF092DF
:107B6000C6008091C00085FFFCCF9092C600809136
:107B7000C00085FFFCCF8092C6008091C00085FFC9
:107B8000FCCF7092C6008091C00085FFFCCF609250
:107B9000C6008091C00085FFFCCF5092C600809146
:107BA000C00085FFFCCF4092C6008091C00085FFD9
:107BB000FCCF3092C6008091C00085FFFCCFB09210
:107BC000C60088CF0E94763C863808F4BDCF0E945C
:107BD000763C0E94F33C7ECF0E94763C803809F4CC
:107BE0009CC0813809F40BC1823809F43CC1883942
:107BF00009F48FC080E00E94C73C6CCF84E10E94F2
:107C0000BD3C0E94F33C66CF85E00E94BD3C0E94D3
:107C1000F33C60CF0E94763C809306010E94763C44
:107C2000809307010E94F33C55CF0E94763C80333D
:107C300009F41DC183E00E94BD3C80E00E94C73C66
:107C400049CF0E94763C809309020E94763C809343
:107C5000080280910C028E7F80930C020E94763C79
:107C6000853409F415C18091080290910902892B8D
:107C700089F000E010E00E94763CF801E85FFE4FDA
:107C800080830F5F1F4F80910802909109020817AF
:107C9000190788F30E94763C803209F045CF809125
:107CA0000C0280FF01C16091060170910701660F0F
:107CB000771F7093070160930601A0910802B091AD
:107CC00009021097C9F0E8E0F1E09B01AD014E0F09
:107CD0005F1FF999FECF32BD21BD819180BDFA9A17
:107CE000F99A2F5F3F4FE417F50799F76A0F7B1F4B
:107CF00070930701609306018091C00085FFFCCF5F
:107D0000F092C6008091C00085FFFCCFB092C60003
:107D1000E1CE83E00E94C73CDDCE82E00E94C73CFA
:107D2000D9CE0E94763C809309020E94763C8093D3
:107D300008028091060190910701880F991F909386
:107D40000701809306010E94763C853409F4A6C0A1
:107D500080910C028E7F80930C020E94763C8032D0
:107D600009F0B8CE8091C00085FFFCCFF092C6002C
:107D7000609108027091090261157105B9F140E046
:107D800050E080910C02A82FA170B82FB27011C0E2
:107D9000BB2309F45CC0E0910601F0910701319624
:107DA000F0930701E09306014F5F5F4F46175707B7
:107DB000E8F4AA2369F3F999FECF209106013091E6
:107DC000070132BD21BDF89A90B58091C00085FFB2
:107DD000FCCF9093C6002F5F3F4F30930701209355
:107DE00006014F5F5F4F4617570718F38091C00099
:107DF00085FDE5CE8091C00085FFF8CFE0CE81E023
:107E00000E94C73C67CE0E94763C803209F08CCE3F
:107E10008091C00085FFFCCFF092C6008091C00029
:107E200085FFFCCFE092C6008091C00085FFFCCFAB
:107E3000D092C6008091C00085FFFCCFC092C600E2
:107E40008091C00085FFFCCFB092C60043CEE09188
:107E50000601F091070194918091C00085FFFCCF4D
:107E60009093C6009CCF80E10E94C73C33CE0E9415
:107E7000763C0E94763C182F0E94763C112309F430
:107E800083C0113009F484C08FE00E94C73C22CE29
:107E900080910C02816080930C02E5CE80910C02EF
:107EA000816080930C0259CF809107018823880F4D
:107EB000880B8A2180930B02809106019091070123
:107EC000880F991F90930701809306018091080203
:107ED00080FF09C080910802909109020196909359
:107EE000090280930802F894F999FECF1127E091D6
:107EF0000601F0910701C8E0D1E08091080290915D
:107F00000902103091F40091570001700130D9F34B
:107F100003E000935700E89500915700017001308D
:107F2000D9F301E100935700E89509901990009169
:107F3000570001700130D9F301E000935700E89534
:107F40001395103498F011270091570001700130FB
:107F5000D9F305E000935700E895009157000170B0
:107F60000130D9F301E100935700E895329602976A
:107F700009F0C7CF103011F00296E5CF112480919F
:107F8000C00085FFB9CEBCCE8EE10E94C73CA2CD19
:0C7F900085E90E94C73C9ECDF894FFCF0D
:027F9C00800063
:040000030000780081
:00000001FF
